{
  "_format": "hh-sol-artifact-1",
  "contractName": "WaifuGen",
  "sourceName": "contracts/WaifuGen.sol",
  "abi": [
    {
      "inputs": [
        {
          "internalType": "string",
          "name": "_name",
          "type": "string"
        },
        {
          "internalType": "string",
          "name": "_symbol",
          "type": "string"
        },
        {
          "internalType": "string",
          "name": "_initBaseURI",
          "type": "string"
        }
      ],
      "stateMutability": "nonpayable",
      "type": "constructor"
    },
    {
      "anonymous": false,
      "inputs": [
        {
          "indexed": true,
          "internalType": "address",
          "name": "owner",
          "type": "address"
        },
        {
          "indexed": true,
          "internalType": "address",
          "name": "approved",
          "type": "address"
        },
        {
          "indexed": true,
          "internalType": "uint256",
          "name": "tokenId",
          "type": "uint256"
        }
      ],
      "name": "Approval",
      "type": "event"
    },
    {
      "anonymous": false,
      "inputs": [
        {
          "indexed": true,
          "internalType": "address",
          "name": "owner",
          "type": "address"
        },
        {
          "indexed": true,
          "internalType": "address",
          "name": "operator",
          "type": "address"
        },
        {
          "indexed": false,
          "internalType": "bool",
          "name": "approved",
          "type": "bool"
        }
      ],
      "name": "ApprovalForAll",
      "type": "event"
    },
    {
      "anonymous": false,
      "inputs": [
        {
          "indexed": false,
          "internalType": "uint256",
          "name": "amount",
          "type": "uint256"
        },
        {
          "indexed": false,
          "internalType": "address",
          "name": "owner",
          "type": "address"
        }
      ],
      "name": "Minted",
      "type": "event"
    },
    {
      "anonymous": false,
      "inputs": [
        {
          "indexed": true,
          "internalType": "address",
          "name": "previousOwner",
          "type": "address"
        },
        {
          "indexed": true,
          "internalType": "address",
          "name": "newOwner",
          "type": "address"
        }
      ],
      "name": "OwnershipTransferred",
      "type": "event"
    },
    {
      "anonymous": false,
      "inputs": [
        {
          "indexed": true,
          "internalType": "address",
          "name": "from",
          "type": "address"
        },
        {
          "indexed": true,
          "internalType": "address",
          "name": "to",
          "type": "address"
        },
        {
          "indexed": true,
          "internalType": "uint256",
          "name": "tokenId",
          "type": "uint256"
        }
      ],
      "name": "Transfer",
      "type": "event"
    },
    {
      "inputs": [
        {
          "internalType": "address",
          "name": "to",
          "type": "address"
        },
        {
          "internalType": "uint256",
          "name": "tokenId",
          "type": "uint256"
        }
      ],
      "name": "approve",
      "outputs": [],
      "stateMutability": "nonpayable",
      "type": "function"
    },
    {
      "inputs": [
        {
          "internalType": "address",
          "name": "owner",
          "type": "address"
        }
      ],
      "name": "balanceOf",
      "outputs": [
        {
          "internalType": "uint256",
          "name": "",
          "type": "uint256"
        }
      ],
      "stateMutability": "view",
      "type": "function"
    },
    {
      "inputs": [],
      "name": "baseExtension",
      "outputs": [
        {
          "internalType": "string",
          "name": "",
          "type": "string"
        }
      ],
      "stateMutability": "view",
      "type": "function"
    },
    {
      "inputs": [],
      "name": "cost",
      "outputs": [
        {
          "internalType": "uint256",
          "name": "",
          "type": "uint256"
        }
      ],
      "stateMutability": "view",
      "type": "function"
    },
    {
      "inputs": [
        {
          "internalType": "uint256",
          "name": "tokenId",
          "type": "uint256"
        }
      ],
      "name": "getApproved",
      "outputs": [
        {
          "internalType": "address",
          "name": "",
          "type": "address"
        }
      ],
      "stateMutability": "view",
      "type": "function"
    },
    {
      "inputs": [
        {
          "internalType": "address",
          "name": "owner",
          "type": "address"
        },
        {
          "internalType": "address",
          "name": "operator",
          "type": "address"
        }
      ],
      "name": "isApprovedForAll",
      "outputs": [
        {
          "internalType": "bool",
          "name": "",
          "type": "bool"
        }
      ],
      "stateMutability": "view",
      "type": "function"
    },
    {
      "inputs": [],
      "name": "maxMintAmount",
      "outputs": [
        {
          "internalType": "uint256",
          "name": "",
          "type": "uint256"
        }
      ],
      "stateMutability": "view",
      "type": "function"
    },
    {
      "inputs": [],
      "name": "maxSupply",
      "outputs": [
        {
          "internalType": "uint256",
          "name": "",
          "type": "uint256"
        }
      ],
      "stateMutability": "view",
      "type": "function"
    },
    {
      "inputs": [
        {
          "internalType": "uint256",
          "name": "_mintAmount",
          "type": "uint256"
        }
      ],
      "name": "mint",
      "outputs": [],
      "stateMutability": "payable",
      "type": "function"
    },
    {
      "inputs": [
        {
          "internalType": "uint256",
          "name": "_mintAmount",
          "type": "uint256"
        },
        {
          "internalType": "address",
          "name": "_receiver",
          "type": "address"
        }
      ],
      "name": "mintForAddress",
      "outputs": [],
      "stateMutability": "nonpayable",
      "type": "function"
    },
    {
      "inputs": [],
      "name": "name",
      "outputs": [
        {
          "internalType": "string",
          "name": "",
          "type": "string"
        }
      ],
      "stateMutability": "view",
      "type": "function"
    },
    {
      "inputs": [],
      "name": "owner",
      "outputs": [
        {
          "internalType": "address",
          "name": "",
          "type": "address"
        }
      ],
      "stateMutability": "view",
      "type": "function"
    },
    {
      "inputs": [
        {
          "internalType": "uint256",
          "name": "tokenId",
          "type": "uint256"
        }
      ],
      "name": "ownerOf",
      "outputs": [
        {
          "internalType": "address",
          "name": "",
          "type": "address"
        }
      ],
      "stateMutability": "view",
      "type": "function"
    },
    {
      "inputs": [
        {
          "internalType": "bool",
          "name": "_state",
          "type": "bool"
        }
      ],
      "name": "pause",
      "outputs": [],
      "stateMutability": "nonpayable",
      "type": "function"
    },
    {
      "inputs": [],
      "name": "paused",
      "outputs": [
        {
          "internalType": "bool",
          "name": "",
          "type": "bool"
        }
      ],
      "stateMutability": "view",
      "type": "function"
    },
    {
      "inputs": [],
      "name": "renounceOwnership",
      "outputs": [],
      "stateMutability": "nonpayable",
      "type": "function"
    },
    {
      "inputs": [],
      "name": "reveal",
      "outputs": [],
      "stateMutability": "nonpayable",
      "type": "function"
    },
    {
      "inputs": [],
      "name": "revealed",
      "outputs": [
        {
          "internalType": "bool",
          "name": "",
          "type": "bool"
        }
      ],
      "stateMutability": "view",
      "type": "function"
    },
    {
      "inputs": [
        {
          "internalType": "address",
          "name": "from",
          "type": "address"
        },
        {
          "internalType": "address",
          "name": "to",
          "type": "address"
        },
        {
          "internalType": "uint256",
          "name": "tokenId",
          "type": "uint256"
        }
      ],
      "name": "safeTransferFrom",
      "outputs": [],
      "stateMutability": "nonpayable",
      "type": "function"
    },
    {
      "inputs": [
        {
          "internalType": "address",
          "name": "from",
          "type": "address"
        },
        {
          "internalType": "address",
          "name": "to",
          "type": "address"
        },
        {
          "internalType": "uint256",
          "name": "tokenId",
          "type": "uint256"
        },
        {
          "internalType": "bytes",
          "name": "_data",
          "type": "bytes"
        }
      ],
      "name": "safeTransferFrom",
      "outputs": [],
      "stateMutability": "nonpayable",
      "type": "function"
    },
    {
      "inputs": [
        {
          "internalType": "address",
          "name": "operator",
          "type": "address"
        },
        {
          "internalType": "bool",
          "name": "approved",
          "type": "bool"
        }
      ],
      "name": "setApprovalForAll",
      "outputs": [],
      "stateMutability": "nonpayable",
      "type": "function"
    },
    {
      "inputs": [
        {
          "internalType": "string",
          "name": "_newBaseExtension",
          "type": "string"
        }
      ],
      "name": "setBaseExtension",
      "outputs": [],
      "stateMutability": "nonpayable",
      "type": "function"
    },
    {
      "inputs": [
        {
          "internalType": "string",
          "name": "_newBaseURI",
          "type": "string"
        }
      ],
      "name": "setBaseURI",
      "outputs": [],
      "stateMutability": "nonpayable",
      "type": "function"
    },
    {
      "inputs": [
        {
          "internalType": "uint256",
          "name": "_newCost",
          "type": "uint256"
        }
      ],
      "name": "setCost",
      "outputs": [],
      "stateMutability": "nonpayable",
      "type": "function"
    },
    {
      "inputs": [
        {
          "internalType": "uint256",
          "name": "_newmaxMintAmount",
          "type": "uint256"
        }
      ],
      "name": "setmaxMintAmount",
      "outputs": [],
      "stateMutability": "nonpayable",
      "type": "function"
    },
    {
      "inputs": [
        {
          "internalType": "bytes4",
          "name": "interfaceId",
          "type": "bytes4"
        }
      ],
      "name": "supportsInterface",
      "outputs": [
        {
          "internalType": "bool",
          "name": "",
          "type": "bool"
        }
      ],
      "stateMutability": "view",
      "type": "function"
    },
    {
      "inputs": [],
      "name": "symbol",
      "outputs": [
        {
          "internalType": "string",
          "name": "",
          "type": "string"
        }
      ],
      "stateMutability": "view",
      "type": "function"
    },
    {
      "inputs": [
        {
          "internalType": "uint256",
          "name": "tokenId",
          "type": "uint256"
        }
      ],
      "name": "tokenURI",
      "outputs": [
        {
          "internalType": "string",
          "name": "",
          "type": "string"
        }
      ],
      "stateMutability": "view",
      "type": "function"
    },
    {
      "inputs": [],
      "name": "totalSupply",
      "outputs": [
        {
          "internalType": "uint256",
          "name": "",
          "type": "uint256"
        }
      ],
      "stateMutability": "view",
      "type": "function"
    },
    {
      "inputs": [
        {
          "internalType": "address",
          "name": "from",
          "type": "address"
        },
        {
          "internalType": "address",
          "name": "to",
          "type": "address"
        },
        {
          "internalType": "uint256",
          "name": "tokenId",
          "type": "uint256"
        }
      ],
      "name": "transferFrom",
      "outputs": [],
      "stateMutability": "nonpayable",
      "type": "function"
    },
    {
      "inputs": [
        {
          "internalType": "address",
          "name": "newOwner",
          "type": "address"
        }
      ],
      "name": "transferOwnership",
      "outputs": [],
      "stateMutability": "nonpayable",
      "type": "function"
    },
    {
      "inputs": [
        {
          "internalType": "address",
          "name": "_owner",
          "type": "address"
        }
      ],
      "name": "walletOfOwner",
      "outputs": [
        {
          "internalType": "uint256[]",
          "name": "",
          "type": "uint256[]"
        }
      ],
      "stateMutability": "view",
      "type": "function"
    },
    {
      "inputs": [],
      "name": "withdraw",
      "outputs": [],
      "stateMutability": "payable",
      "type": "function"
    }
  ],
  "bytecode": "0x60c06040526005608081905264173539b7b760d91b60a0908152620000289160099190620001a6565b506000600a556103e8600b556002600c55600d805461ffff19166101001790553480156200005557600080fd5b506040516200258938038062002589833981016040819052620000789162000319565b82518390839062000091906000906020850190620001a6565b508051620000a7906001906020840190620001a6565b505050620000c4620000be620000d860201b60201c565b620000dc565b620000cf816200012e565b505050620003e7565b3390565b600680546001600160a01b038381166001600160a01b0319831681179093556040519116919082907f8be0079c531659141344cd1fd0a4f28419497f9722a3daafe3b4186f6b6457e090600090a35050565b6006546001600160a01b031633146200018d5760405162461bcd60e51b815260206004820181905260248201527f4f776e61626c653a2063616c6c6572206973206e6f7420746865206f776e6572604482015260640160405180910390fd5b8051620001a2906008906020840190620001a6565b5050565b828054620001b490620003aa565b90600052602060002090601f016020900481019282620001d8576000855562000223565b82601f10620001f357805160ff191683800117855562000223565b8280016001018555821562000223579182015b828111156200022357825182559160200191906001019062000206565b506200023192915062000235565b5090565b5b8082111562000231576000815560010162000236565b634e487b7160e01b600052604160045260246000fd5b600082601f8301126200027457600080fd5b81516001600160401b03808211156200029157620002916200024c565b604051601f8301601f19908116603f01168101908282118183101715620002bc57620002bc6200024c565b81604052838152602092508683858801011115620002d957600080fd5b600091505b83821015620002fd5785820183015181830184015290820190620002de565b838211156200030f5760008385830101525b9695505050505050565b6000806000606084860312156200032f57600080fd5b83516001600160401b03808211156200034757600080fd5b620003558783880162000262565b945060208601519150808211156200036c57600080fd5b6200037a8783880162000262565b935060408601519150808211156200039157600080fd5b50620003a08682870162000262565b9150509250925092565b600181811c90821680620003bf57607f821691505b60208210811415620003e157634e487b7160e01b600052602260045260246000fd5b50919050565b61219280620003f76000396000f3fe6080604052600436106101ee5760003560e01c80636352211e1161010d578063a475b5dd116100a0578063d5abeb011161006f578063d5abeb0114610546578063da3ef23f1461055c578063e985e9c51461057c578063efbd73f4146105c5578063f2fde38b146105e557600080fd5b8063a475b5dd146104dc578063b88d4fde146104f1578063c668286214610511578063c87b56dd1461052657600080fd5b80638da5cb5b116100dc5780638da5cb5b1461047657806395d89b4114610494578063a0712d68146104a9578063a22cb465146104bc57600080fd5b80636352211e1461040157806370a0823114610421578063715018a6146104415780637f00c7a61461045657600080fd5b806323b872dd1161018557806344a0d68a1161015457806344a0d68a1461038857806351830227146103a857806355f804b3146103c75780635c975abb146103e757600080fd5b806323b872dd146103135780633ccfd60b1461033357806342842e0e1461033b578063438b63001461035b57600080fd5b8063095ea7b3116101c1578063095ea7b3146102a457806313faede6146102c457806318160ddd146102e8578063239c70ae146102fd57600080fd5b806301ffc9a7146101f357806302329a291461022857806306fdde031461024a578063081812fc1461026c575b600080fd5b3480156101ff57600080fd5b5061021361020e366004611ada565b610605565b60405190151581526020015b60405180910390f35b34801561023457600080fd5b50610248610243366004611b0c565b610657565b005b34801561025657600080fd5b5061025f61069d565b60405161021f9190611b7f565b34801561027857600080fd5b5061028c610287366004611b92565b61072f565b6040516001600160a01b03909116815260200161021f565b3480156102b057600080fd5b506102486102bf366004611bc2565b6107c4565b3480156102d057600080fd5b506102da600a5481565b60405190815260200161021f565b3480156102f457600080fd5b506102da6108da565b34801561030957600080fd5b506102da600c5481565b34801561031f57600080fd5b5061024861032e366004611bec565b6108ea565b61024861091b565b34801561034757600080fd5b50610248610356366004611bec565b6109b9565b34801561036757600080fd5b5061037b610376366004611c28565b6109d4565b60405161021f9190611c43565b34801561039457600080fd5b506102486103a3366004611b92565b610ab5565b3480156103b457600080fd5b50600d5461021390610100900460ff1681565b3480156103d357600080fd5b506102486103e2366004611d13565b610ae4565b3480156103f357600080fd5b50600d546102139060ff1681565b34801561040d57600080fd5b5061028c61041c366004611b92565b610b25565b34801561042d57600080fd5b506102da61043c366004611c28565b610b9c565b34801561044d57600080fd5b50610248610c23565b34801561046257600080fd5b50610248610471366004611b92565b610c59565b34801561048257600080fd5b506006546001600160a01b031661028c565b3480156104a057600080fd5b5061025f610c88565b6102486104b7366004611b92565b610c97565b3480156104c857600080fd5b506102486104d7366004611d5c565b610e27565b3480156104e857600080fd5b50610248610eec565b3480156104fd57600080fd5b5061024861050c366004611d8f565b610f27565b34801561051d57600080fd5b5061025f610f5f565b34801561053257600080fd5b5061025f610541366004611b92565b610fed565b34801561055257600080fd5b506102da600b5481565b34801561056857600080fd5b50610248610577366004611d13565b6110cb565b34801561058857600080fd5b50610213610597366004611e0b565b6001600160a01b03918216600090815260056020908152604080832093909416825291909152205460ff1690565b3480156105d157600080fd5b506102486105e0366004611e35565b611108565b3480156105f157600080fd5b50610248610600366004611c28565b611232565b60006001600160e01b031982166380ac58cd60e01b148061063657506001600160e01b03198216635b5e139f60e01b145b8061065157506301ffc9a760e01b6001600160e01b03198316145b92915050565b6006546001600160a01b0316331461068a5760405162461bcd60e51b815260040161068190611e58565b60405180910390fd5b600d805460ff1916911515919091179055565b6060600080546106ac90611e8d565b80601f01602080910402602001604051908101604052809291908181526020018280546106d890611e8d565b80156107255780601f106106fa57610100808354040283529160200191610725565b820191906000526020600020905b81548152906001019060200180831161070857829003601f168201915b5050505050905090565b6000818152600260205260408120546001600160a01b03166107a85760405162461bcd60e51b815260206004820152602c60248201527f4552433732313a20617070726f76656420717565727920666f72206e6f6e657860448201526b34b9ba32b73a103a37b5b2b760a11b6064820152608401610681565b506000908152600460205260409020546001600160a01b031690565b60006107cf82610b25565b9050806001600160a01b0316836001600160a01b0316141561083d5760405162461bcd60e51b815260206004820152602160248201527f4552433732313a20617070726f76616c20746f2063757272656e74206f776e656044820152603960f91b6064820152608401610681565b336001600160a01b038216148061085957506108598133610597565b6108cb5760405162461bcd60e51b815260206004820152603860248201527f4552433732313a20617070726f76652063616c6c6572206973206e6f74206f7760448201527f6e6572206e6f7220617070726f76656420666f7220616c6c00000000000000006064820152608401610681565b6108d583836112ca565b505050565b60006108e560075490565b905090565b6108f43382611338565b6109105760405162461bcd60e51b815260040161068190611ec8565b6108d583838361142f565b6006546001600160a01b031633146109455760405162461bcd60e51b815260040161068190611e58565b60006109596006546001600160a01b031690565b6001600160a01b03164760405160006040518083038185875af1925050503d80600081146109a3576040519150601f19603f3d011682016040523d82523d6000602084013e6109a8565b606091505b50509050806109b657600080fd5b50565b6108d583838360405180602001604052806000815250610f27565b606060006109e183610b9c565b905060008167ffffffffffffffff8111156109fe576109fe611c87565b604051908082528060200260200182016040528015610a27578160200160208202803683370190505b509050600160005b8381108015610a405750600b548211155b15610aab576000610a5083610b25565b9050866001600160a01b0316816001600160a01b03161415610a985782848381518110610a7f57610a7f611f19565b602090810291909101015281610a9481611f45565b9250505b82610aa281611f45565b93505050610a2f565b5090949350505050565b6006546001600160a01b03163314610adf5760405162461bcd60e51b815260040161068190611e58565b600a55565b6006546001600160a01b03163314610b0e5760405162461bcd60e51b815260040161068190611e58565b8051610b21906008906020840190611a2b565b5050565b6000818152600260205260408120546001600160a01b0316806106515760405162461bcd60e51b815260206004820152602960248201527f4552433732313a206f776e657220717565727920666f72206e6f6e657869737460448201526832b73a103a37b5b2b760b91b6064820152608401610681565b60006001600160a01b038216610c075760405162461bcd60e51b815260206004820152602a60248201527f4552433732313a2062616c616e636520717565727920666f7220746865207a65604482015269726f206164647265737360b01b6064820152608401610681565b506001600160a01b031660009081526003602052604090205490565b6006546001600160a01b03163314610c4d5760405162461bcd60e51b815260040161068190611e58565b610c5760006115cf565b565b6006546001600160a01b03163314610c835760405162461bcd60e51b815260040161068190611e58565b600c55565b6060600180546106ac90611e8d565b80600081118015610caa5750600c548111155b610cec5760405162461bcd60e51b8152602060048201526013602482015272125b9d985b1a59081b5a5b9d08185b5bdd5b9d606a1b6044820152606401610681565b600b5481610cf960075490565b610d039190611f60565b1115610d475760405162461bcd60e51b815260206004820152601360248201527213585e081cdd5c1c1b1e48195e18d959591959606a1b6044820152606401610681565b600d5460ff1615610d8f5760405162461bcd60e51b815260206004820152601260248201527110dbdb9d1c9858dd081a5cc81c185d5cd95960721b6044820152606401610681565b81600a54610d9d9190611f78565b341015610de15760405162461bcd60e51b8152602060048201526012602482015271496e73756666696369656e742066756e647360701b6044820152606401610681565b610deb3383611621565b604080518381523360208201527fb9203d657e9c0ec8274c818292ab0f58b04e1970050716891770eb1bab5d655e910160405180910390a15050565b6001600160a01b038216331415610e805760405162461bcd60e51b815260206004820152601960248201527f4552433732313a20617070726f766520746f2063616c6c6572000000000000006044820152606401610681565b3360008181526005602090815260408083206001600160a01b03871680855290835292819020805460ff191686151590811790915590519081529192917f17307eab39ab6107e8899845ad3d59bd9653f200f220920489ca2b5937696c31910160405180910390a35050565b6006546001600160a01b03163314610f165760405162461bcd60e51b815260040161068190611e58565b600d805461ff001916610100179055565b610f313383611338565b610f4d5760405162461bcd60e51b815260040161068190611ec8565b610f598484848461165e565b50505050565b60098054610f6c90611e8d565b80601f0160208091040260200160405190810160405280929190818152602001828054610f9890611e8d565b8015610fe55780601f10610fba57610100808354040283529160200191610fe5565b820191906000526020600020905b815481529060010190602001808311610fc857829003601f168201915b505050505081565b6000818152600260205260409020546060906001600160a01b031661106c5760405162461bcd60e51b815260206004820152602f60248201527f4552433732314d657461646174613a2055524920717565727920666f72206e6f60448201526e3732bc34b9ba32b73a103a37b5b2b760891b6064820152608401610681565b6000611076611691565b9050600081511161109657604051806020016040528060008152506110c4565b806110a0846116a0565b60096040516020016110b493929190611f97565b6040516020818303038152906040525b9392505050565b6006546001600160a01b031633146110f55760405162461bcd60e51b815260040161068190611e58565b8051610b21906009906020840190611a2b565b8160008111801561111b5750600c548111155b61115d5760405162461bcd60e51b8152602060048201526013602482015272125b9d985b1a59081b5a5b9d08185b5bdd5b9d606a1b6044820152606401610681565b600b548161116a60075490565b6111749190611f60565b11156111b85760405162461bcd60e51b815260206004820152601360248201527213585e081cdd5c1c1b1e48195e18d959591959606a1b6044820152606401610681565b6006546001600160a01b031633146111e25760405162461bcd60e51b815260040161068190611e58565b6111ec8284611621565b604080518481526001600160a01b03841660208201527fb9203d657e9c0ec8274c818292ab0f58b04e1970050716891770eb1bab5d655e910160405180910390a1505050565b6006546001600160a01b0316331461125c5760405162461bcd60e51b815260040161068190611e58565b6001600160a01b0381166112c15760405162461bcd60e51b815260206004820152602660248201527f4f776e61626c653a206e6577206f776e657220697320746865207a65726f206160448201526564647265737360d01b6064820152608401610681565b6109b6816115cf565b600081815260046020526040902080546001600160a01b0319166001600160a01b03841690811790915581906112ff82610b25565b6001600160a01b03167f8c5be1e5ebec7d5bd14f71427d1e84f3dd0314c0f7b2291e5b200ac8c7c3b92560405160405180910390a45050565b6000818152600260205260408120546001600160a01b03166113b15760405162461bcd60e51b815260206004820152602c60248201527f4552433732313a206f70657261746f7220717565727920666f72206e6f6e657860448201526b34b9ba32b73a103a37b5b2b760a11b6064820152608401610681565b60006113bc83610b25565b9050806001600160a01b0316846001600160a01b031614806113f75750836001600160a01b03166113ec8461072f565b6001600160a01b0316145b8061142757506001600160a01b0380821660009081526005602090815260408083209388168352929052205460ff165b949350505050565b826001600160a01b031661144282610b25565b6001600160a01b0316146114aa5760405162461bcd60e51b815260206004820152602960248201527f4552433732313a207472616e73666572206f6620746f6b656e2074686174206960448201526839903737ba1037bbb760b91b6064820152608401610681565b6001600160a01b03821661150c5760405162461bcd60e51b8152602060048201526024808201527f4552433732313a207472616e7366657220746f20746865207a65726f206164646044820152637265737360e01b6064820152608401610681565b6115176000826112ca565b6001600160a01b038316600090815260036020526040812080546001929061154090849061205b565b90915550506001600160a01b038216600090815260036020526040812080546001929061156e908490611f60565b909155505060008181526002602052604080822080546001600160a01b0319166001600160a01b0386811691821790925591518493918716917fddf252ad1be2c89b69c2b068fc378daa952ba7f163c4a11628f55a4df523b3ef91a4505050565b600680546001600160a01b038381166001600160a01b0319831681179093556040519116919082907f8be0079c531659141344cd1fd0a4f28419497f9722a3daafe3b4186f6b6457e090600090a35050565b60005b818110156108d55761163a600780546001019055565b61164c8361164760075490565b61179e565b8061165681611f45565b915050611624565b61166984848461142f565b611675848484846117b8565b610f595760405162461bcd60e51b815260040161068190612072565b6060600880546106ac90611e8d565b6060816116c45750506040805180820190915260018152600360fc1b602082015290565b8160005b81156116ee57806116d881611f45565b91506116e79050600a836120da565b91506116c8565b60008167ffffffffffffffff81111561170957611709611c87565b6040519080825280601f01601f191660200182016040528015611733576020820181803683370190505b5090505b84156114275761174860018361205b565b9150611755600a866120ee565b611760906030611f60565b60f81b81838151811061177557611775611f19565b60200101906001600160f81b031916908160001a905350611797600a866120da565b9450611737565b610b218282604051806020016040528060008152506118b6565b60006001600160a01b0384163b156118ab57604051630a85bd0160e11b81526001600160a01b0385169063150b7a02906117fc903390899088908890600401612102565b6020604051808303816000875af1925050508015611837575060408051601f3d908101601f191682019092526118349181019061213f565b60015b611891573d808015611865576040519150601f19603f3d011682016040523d82523d6000602084013e61186a565b606091505b5080516118895760405162461bcd60e51b815260040161068190612072565b805181602001fd5b6001600160e01b031916630a85bd0160e11b149050611427565b506001949350505050565b6118c083836118e9565b6118cd60008484846117b8565b6108d55760405162461bcd60e51b815260040161068190612072565b6001600160a01b03821661193f5760405162461bcd60e51b815260206004820181905260248201527f4552433732313a206d696e7420746f20746865207a65726f20616464726573736044820152606401610681565b6000818152600260205260409020546001600160a01b0316156119a45760405162461bcd60e51b815260206004820152601c60248201527f4552433732313a20746f6b656e20616c7265616479206d696e746564000000006044820152606401610681565b6001600160a01b03821660009081526003602052604081208054600192906119cd908490611f60565b909155505060008181526002602052604080822080546001600160a01b0319166001600160a01b03861690811790915590518392907fddf252ad1be2c89b69c2b068fc378daa952ba7f163c4a11628f55a4df523b3ef908290a45050565b828054611a3790611e8d565b90600052602060002090601f016020900481019282611a595760008555611a9f565b82601f10611a7257805160ff1916838001178555611a9f565b82800160010185558215611a9f579182015b82811115611a9f578251825591602001919060010190611a84565b50611aab929150611aaf565b5090565b5b80821115611aab5760008155600101611ab0565b6001600160e01b0319811681146109b657600080fd5b600060208284031215611aec57600080fd5b81356110c481611ac4565b80358015158114611b0757600080fd5b919050565b600060208284031215611b1e57600080fd5b6110c482611af7565b60005b83811015611b42578181015183820152602001611b2a565b83811115610f595750506000910152565b60008151808452611b6b816020860160208601611b27565b601f01601f19169290920160200192915050565b6020815260006110c46020830184611b53565b600060208284031215611ba457600080fd5b5035919050565b80356001600160a01b0381168114611b0757600080fd5b60008060408385031215611bd557600080fd5b611bde83611bab565b946020939093013593505050565b600080600060608486031215611c0157600080fd5b611c0a84611bab565b9250611c1860208501611bab565b9150604084013590509250925092565b600060208284031215611c3a57600080fd5b6110c482611bab565b6020808252825182820181905260009190848201906040850190845b81811015611c7b57835183529284019291840191600101611c5f565b50909695505050505050565b634e487b7160e01b600052604160045260246000fd5b600067ffffffffffffffff80841115611cb857611cb8611c87565b604051601f8501601f19908116603f01168101908282118183101715611ce057611ce0611c87565b81604052809350858152868686011115611cf957600080fd5b858560208301376000602087830101525050509392505050565b600060208284031215611d2557600080fd5b813567ffffffffffffffff811115611d3c57600080fd5b8201601f81018413611d4d57600080fd5b61142784823560208401611c9d565b60008060408385031215611d6f57600080fd5b611d7883611bab565b9150611d8660208401611af7565b90509250929050565b60008060008060808587031215611da557600080fd5b611dae85611bab565b9350611dbc60208601611bab565b925060408501359150606085013567ffffffffffffffff811115611ddf57600080fd5b8501601f81018713611df057600080fd5b611dff87823560208401611c9d565b91505092959194509250565b60008060408385031215611e1e57600080fd5b611e2783611bab565b9150611d8660208401611bab565b60008060408385031215611e4857600080fd5b82359150611d8660208401611bab565b6020808252818101527f4f776e61626c653a2063616c6c6572206973206e6f7420746865206f776e6572604082015260600190565b600181811c90821680611ea157607f821691505b60208210811415611ec257634e487b7160e01b600052602260045260246000fd5b50919050565b60208082526031908201527f4552433732313a207472616e736665722063616c6c6572206973206e6f74206f6040820152701ddb995c881b9bdc88185c1c1c9bdd9959607a1b606082015260800190565b634e487b7160e01b600052603260045260246000fd5b634e487b7160e01b600052601160045260246000fd5b6000600019821415611f5957611f59611f2f565b5060010190565b60008219821115611f7357611f73611f2f565b500190565b6000816000190483118215151615611f9257611f92611f2f565b500290565b600084516020611faa8285838a01611b27565b855191840191611fbd8184848a01611b27565b8554920191600090600181811c9080831680611fda57607f831692505b858310811415611ff857634e487b7160e01b85526022600452602485fd5b80801561200c576001811461201d5761204a565b60ff1985168852838801955061204a565b60008b81526020902060005b858110156120425781548a820152908401908801612029565b505083880195505b50939b9a5050505050505050505050565b60008282101561206d5761206d611f2f565b500390565b60208082526032908201527f4552433732313a207472616e7366657220746f206e6f6e20455243373231526560408201527131b2b4bb32b91034b6b83632b6b2b73a32b960711b606082015260800190565b634e487b7160e01b600052601260045260246000fd5b6000826120e9576120e96120c4565b500490565b6000826120fd576120fd6120c4565b500690565b6001600160a01b038581168252841660208201526040810183905260806060820181905260009061213590830184611b53565b9695505050505050565b60006020828403121561215157600080fd5b81516110c481611ac456fea26469706673582212200c82e99e37882b31b1465bbe304e45ecaceb132d7ec62e2d42082e77d5240b6f64736f6c634300080a0033",
  "linkReferences": {},
  "deployedLinkReferences": {}
}